:03000000020050AB
:03000300020055A3
:0300130002005692
:03000B0002005799
:100050007590AA80FE32323211BB11D53117116171
:1000600022314575A000316475A0013164315B22F5
:1000700075A000EEC4540F4440F5A03164EE540F57
:100080004440F5A031642275A000EDC45407440833
:10009000F5A03164ED540FF5A03164227400936033
:1000A00019A3FE75A000C4540F4440F5A03164EEBE
:1000B000540F4440F5A0316480E22275A000314C19
:1000C00075A0033164315B3164315B3164315B7540
:1000D000A00231642275A002316475A00831642247
:1000E00075A001316475A00C31642275A0013164E2
:1000F00075A00831642275A001316475A0043164D3
:100100002275A001316475A00031642275A0003110
:100110006475A00831642275A000316475A00C31AB
:10012000642275A000316475A00E31642275A000B0
:10013000316475A00F31642275A000316475A0028E
:100140003164315B22757F32D57FFD22757E647507
:100150007D643145D57DFBD57EF522757C643145C6
:10016000D57CFB223145D2A43145C2A43145228F32
:10017000727571027570FAD570FDD571F7D572F18F
:10018000228F757574C87573FAD573FDD574F7D55C
:1001900075F1228F797578087577FA7576FAD576C4
:0B01A000FDD577F7D578F1D579EB227B
:00000001FF
