:0C09820012085712098E1209CA0209431C
:03095400E4F5A027
:0D095700120A03D2A4120A03C2A4020A036A
:10094300120A0312095475A0011209577F01020903
:010953007330
:0608C5008B088A09890A74
:1008CB00E4F50BAB08AA09A90AAF0BEF3395E08F40
:1008DB0082F583120898FF60071208EC050B80E382
:0108EB0022EA
:1008EC00E4F5A0AE078F0FEEC4540FFE53060F4372
:1008FC0006408EA0120957530F0F430F40850FA0CF
:03090C0002095786
:10085700E4F5A07F0112093075A0031209577F0143
:100867001209731209577F011209731209577F0181
:1008770012097375A0021209571209571209577FF7
:100887000E1208EC7F061208EC7F011208ECD2A6C4
:01089700223E
:0C098E0075A00212095775A00802095755
:0C099A0075A00112095775A00C02095746
:0C09A60075A00112095775A0080209573E
:0C09B20075A00112095775A00402095736
:0C09BE0075A001120957E4F5A0020957CA
:0909FA0012095475A00802095706
:0C09CA00E4F5A012095775A00C020957B3
:0C09D600E4F5A012095775A00E020957A5
:0C09E200E4F5A012095775A00F02095798
:02090F008F0F48
:10091100E4F5A0AF0FEFC4540FFF530707430708D7
:0F0921008FA0120957AF0F53070F8FA00209576E
:0F096400E4F5A012095775A002120957020A0301
:040A03007F96DFFEFD
:010A070022CC
:0E097300EF600B7EF9DEFE7EF9DEFE1F80F2E5
:010981002253
:10093000EF600F7E147D647CFADCFEDDFADEF61FCC
:0209400080EE47
:010942002292
:10080000E4F50CF50DF50E75F20575F68075F32F10
:10081000F590120982E5F330E4FB120964E5F57501
:10082000F00A842441F50C75F32FAF0C1208EC305C
:10083000B416050EE50E7002050DFF12090FAF0C80
:100840001208EC7F01120930E50E640F450D70C5EA
:07085000F50D750E3F80BE9F
:030000000209EE04
:0C09EE00787FE4F6D8FD75810F02080048
:10089800BB010CE58229F582E5833AF583E0225015
:1008A80006E92582F8E622BBFE06E92582F8E2225F
:0D08B800E58229F582E5833AF583E4932279
:00000001FF
